{
  "_format": "hh-sol-artifact-1",
  "contractName": "CrowdFunding",
  "sourceName": "contracts/CrowdFunding.sol",
  "abi": [
    {
      "inputs": [],
      "name": "ReentrancyGuardReentrantCall",
      "type": "error"
    },
    {
      "anonymous": false,
      "inputs": [
        {
          "indexed": true,
          "internalType": "uint256",
          "name": "index",
          "type": "uint256"
        },
        {
          "indexed": true,
          "internalType": "address",
          "name": "owner",
          "type": "address"
        }
      ],
      "name": "CampaignCreated",
      "type": "event"
    },
    {
      "anonymous": false,
      "inputs": [
        {
          "indexed": true,
          "internalType": "uint256",
          "name": "index",
          "type": "uint256"
        },
        {
          "indexed": true,
          "internalType": "address",
          "name": "donor",
          "type": "address"
        },
        {
          "indexed": false,
          "internalType": "uint96",
          "name": "amount",
          "type": "uint96"
        }
      ],
      "name": "Donated",
      "type": "event"
    },
    {
      "anonymous": false,
      "inputs": [
        {
          "indexed": true,
          "internalType": "uint256",
          "name": "index",
          "type": "uint256"
        },
        {
          "indexed": true,
          "internalType": "address",
          "name": "donor",
          "type": "address"
        },
        {
          "indexed": false,
          "internalType": "uint96",
          "name": "amount",
          "type": "uint96"
        }
      ],
      "name": "Refunded",
      "type": "event"
    },
    {
      "anonymous": false,
      "inputs": [
        {
          "indexed": true,
          "internalType": "uint256",
          "name": "index",
          "type": "uint256"
        },
        {
          "indexed": false,
          "internalType": "uint96",
          "name": "amount",
          "type": "uint96"
        }
      ],
      "name": "Withdrawn",
      "type": "event"
    },
    {
      "inputs": [
        {
          "internalType": "string",
          "name": "_title",
          "type": "string"
        },
        {
          "internalType": "string",
          "name": "_description",
          "type": "string"
        },
        {
          "internalType": "string",
          "name": "_category",
          "type": "string"
        },
        {
          "internalType": "uint96",
          "name": "_requiredAmount",
          "type": "uint96"
        },
        {
          "internalType": "uint32",
          "name": "_durationDays",
          "type": "uint32"
        }
      ],
      "name": "createCampaign",
      "outputs": [],
      "stateMutability": "nonpayable",
      "type": "function"
    },
    {
      "inputs": [
        {
          "internalType": "uint256",
          "name": "index",
          "type": "uint256"
        }
      ],
      "name": "donate",
      "outputs": [],
      "stateMutability": "payable",
      "type": "function"
    },
    {
      "inputs": [
        {
          "internalType": "uint256",
          "name": "index",
          "type": "uint256"
        }
      ],
      "name": "getCampaign",
      "outputs": [
        {
          "internalType": "string",
          "name": "",
          "type": "string"
        },
        {
          "internalType": "string",
          "name": "",
          "type": "string"
        },
        {
          "internalType": "string",
          "name": "",
          "type": "string"
        },
        {
          "internalType": "address",
          "name": "",
          "type": "address"
        },
        {
          "internalType": "uint96",
          "name": "",
          "type": "uint96"
        },
        {
          "internalType": "uint96",
          "name": "",
          "type": "uint96"
        },
        {
          "internalType": "uint32",
          "name": "",
          "type": "uint32"
        },
        {
          "internalType": "uint32",
          "name": "",
          "type": "uint32"
        },
        {
          "internalType": "bool",
          "name": "",
          "type": "bool"
        }
      ],
      "stateMutability": "view",
      "type": "function"
    },
    {
      "inputs": [
        {
          "internalType": "uint256",
          "name": "index",
          "type": "uint256"
        },
        {
          "internalType": "address",
          "name": "donor",
          "type": "address"
        }
      ],
      "name": "getContribution",
      "outputs": [
        {
          "internalType": "uint96",
          "name": "",
          "type": "uint96"
        }
      ],
      "stateMutability": "view",
      "type": "function"
    },
    {
      "inputs": [],
      "name": "getTotalCampaigns",
      "outputs": [
        {
          "internalType": "uint256",
          "name": "",
          "type": "uint256"
        }
      ],
      "stateMutability": "view",
      "type": "function"
    },
    {
      "inputs": [
        {
          "internalType": "address",
          "name": "user",
          "type": "address"
        }
      ],
      "name": "getUserCampaigns",
      "outputs": [
        {
          "internalType": "uint256[]",
          "name": "",
          "type": "uint256[]"
        }
      ],
      "stateMutability": "view",
      "type": "function"
    },
    {
      "inputs": [
        {
          "internalType": "uint256",
          "name": "index",
          "type": "uint256"
        }
      ],
      "name": "refund",
      "outputs": [],
      "stateMutability": "nonpayable",
      "type": "function"
    },
    {
      "inputs": [
        {
          "internalType": "uint256",
          "name": "index",
          "type": "uint256"
        }
      ],
      "name": "withdraw",
      "outputs": [],
      "stateMutability": "nonpayable",
      "type": "function"
    }
  ],
  "bytecode": "0x608060405234801561001057600080fd5b5060016000819055506123b4806100286000396000f3fe60806040526004361061007b5760003560e01c806357d5e7901161004e57806357d5e79014610142578063a1e5084c1461016b578063e081dbf9146101a8578063f14faf6f146101e55761007b565b806316f43dd414610080578063278ecde1146100ab5780632e1a7d4d146100d45780635598f8cc146100fd575b600080fd5b34801561008c57600080fd5b50610095610201565b6040516100a291906113e4565b60405180910390f35b3480156100b757600080fd5b506100d260048036038101906100cd9190611435565b61020e565b005b3480156100e057600080fd5b506100fb60048036038101906100f69190611435565b6105d0565b005b34801561010957600080fd5b50610124600480360381019061011f9190611435565b6109c5565b60405161013999989796959493929190611594565b60405180910390f35b34801561014e57600080fd5b50610169600480360381019061016491906116f3565b610cab565b005b34801561017757600080fd5b50610192600480360381019061018d91906117fb565b610f0b565b60405161019f91906118e6565b60405180910390f35b3480156101b457600080fd5b506101cf60048036038101906101ca9190611908565b610fa2565b6040516101dc9190611948565b60405180910390f35b6101ff60048036038101906101fa9190611435565b61106e565b005b6000600180549050905090565b61021661137b565b806001818154811061022b5761022a611963565b5b9060005260206000209060060201600401600c9054906101000a900463ffffffff1663ffffffff16421015610295576040517f08c379a000000000000000000000000000000000000000000000000000000000815260040161028c906119de565b60405180910390fd5b60018054905082106102dc576040517f08c379a00000000000000000000000000000000000000000000000000000000081526004016102d390611a4a565b60405180910390fd5b6000600183815481106102f2576102f1611963565b5b906000526020600020906006020190508060030160149054906101000a90046bffffffffffffffffffffffff166bffffffffffffffffffffffff168160040160009054906101000a90046bffffffffffffffffffffffff166bffffffffffffffffffffffff1610610398576040517f08c379a000000000000000000000000000000000000000000000000000000000815260040161038f90611ab6565b60405180910390fd5b60008160050160003373ffffffffffffffffffffffffffffffffffffffff1673ffffffffffffffffffffffffffffffffffffffff16815260200190815260200160002060009054906101000a90046bffffffffffffffffffffffff1690506000816bffffffffffffffffffffffff1611610447576040517f08c379a000000000000000000000000000000000000000000000000000000000815260040161043e90611b22565b60405180910390fd5b60008260050160003373ffffffffffffffffffffffffffffffffffffffff1673ffffffffffffffffffffffffffffffffffffffff16815260200190815260200160002060006101000a8154816bffffffffffffffffffffffff02191690836bffffffffffffffffffffffff16021790555060003373ffffffffffffffffffffffffffffffffffffffff16826bffffffffffffffffffffffff166040516104ec90611b73565b60006040518083038185875af1925050503d8060008114610529576040519150601f19603f3d011682016040523d82523d6000602084013e61052e565b606091505b5050905080610572576040517f08c379a000000000000000000000000000000000000000000000000000000000815260040161056990611bd4565b60405180910390fd5b3373ffffffffffffffffffffffffffffffffffffffff16857f4156727ee60bd8c93c4f43d17d192937dfab044eb59275203c66589e146325a3846040516105b99190611948565b60405180910390a3505050506105cd6113c1565b50565b6105d861137b565b806001805490508110610620576040517f08c379a000000000000000000000000000000000000000000000000000000000815260040161061790611a4a565b60405180910390fd5b6001818154811061063457610633611963565b5b906000526020600020906006020160030160009054906101000a900473ffffffffffffffffffffffffffffffffffffffff1673ffffffffffffffffffffffffffffffffffffffff163373ffffffffffffffffffffffffffffffffffffffff16146106d3576040517f08c379a00000000000000000000000000000000000000000000000000000000081526004016106ca90611c40565b60405180910390fd5b81600181815481106106e8576106e7611963565b5b9060005260206000209060060201600401600c9054906101000a900463ffffffff1663ffffffff16421015610752576040517f08c379a0000000000000000000000000000000000000000000000000000000008152600401610749906119de565b60405180910390fd5b60006001848154811061076857610767611963565b5b906000526020600020906006020190508060030160149054906101000a90046bffffffffffffffffffffffff166bffffffffffffffffffffffff168160040160009054906101000a90046bffffffffffffffffffffffff166bffffffffffffffffffffffff16101561080f576040517f08c379a000000000000000000000000000000000000000000000000000000000815260040161080690611cac565b60405180910390fd5b8060040160149054906101000a900460ff1615610861576040517f08c379a000000000000000000000000000000000000000000000000000000000815260040161085890611d18565b60405180910390fd5b60018160040160146101000a81548160ff02191690831515021790555060008160040160009054906101000a90046bffffffffffffffffffffffff16905060008260030160009054906101000a900473ffffffffffffffffffffffffffffffffffffffff1673ffffffffffffffffffffffffffffffffffffffff16826bffffffffffffffffffffffff166040516108f790611b73565b60006040518083038185875af1925050503d8060008114610934576040519150601f19603f3d011682016040523d82523d6000602084013e610939565b606091505b505090508061097d576040517f08c379a000000000000000000000000000000000000000000000000000000000815260040161097490611d84565b60405180910390fd5b857fe15d43844ae67fd14babb6c985b5ddda8bd492ec747784d9db58111fb7804398836040516109ad9190611948565b60405180910390a250505050506109c26113c1565b50565b60608060606000806000806000806001805490508a10610a1a576040517f08c379a0000000000000000000000000000000000000000000000000000000008152600401610a1190611a4a565b60405180910390fd5b600060018b81548110610a3057610a2f611963565b5b906000526020600020906006020190508060000181600101826002018360030160009054906101000a900473ffffffffffffffffffffffffffffffffffffffff168460030160149054906101000a90046bffffffffffffffffffffffff168560040160009054906101000a90046bffffffffffffffffffffffff1686600401600c9054906101000a900463ffffffff168760040160109054906101000a900463ffffffff168860040160149054906101000a900460ff16888054610af390611dd3565b80601f0160208091040260200160405190810160405280929190818152602001828054610b1f90611dd3565b8015610b6c5780601f10610b4157610100808354040283529160200191610b6c565b820191906000526020600020905b815481529060010190602001808311610b4f57829003601f168201915b50505050509850878054610b7f90611dd3565b80601f0160208091040260200160405190810160405280929190818152602001828054610bab90611dd3565b8015610bf85780601f10610bcd57610100808354040283529160200191610bf8565b820191906000526020600020905b815481529060010190602001808311610bdb57829003601f168201915b50505050509750868054610c0b90611dd3565b80601f0160208091040260200160405190810160405280929190818152602001828054610c3790611dd3565b8015610c845780601f10610c5957610100808354040283529160200191610c84565b820191906000526020600020905b815481529060010190602001808311610c6757829003601f168201915b50505050509650995099509950995099509950995099509950509193959799909294969850565b6000826bffffffffffffffffffffffff1611610cfc576040517f08c379a0000000000000000000000000000000000000000000000000000000008152600401610cf390611e50565b60405180910390fd5b60006001808160018154018082558091505003906000526020600020906006020190508888826000019182610d32929190612056565b508686826001019182610d46929190612056565b508484826002019182610d5a929190612056565b50338160030160006101000a81548173ffffffffffffffffffffffffffffffffffffffff021916908373ffffffffffffffffffffffffffffffffffffffff160217905550828160030160146101000a8154816bffffffffffffffffffffffff02191690836bffffffffffffffffffffffff1602179055506201518082610de09190612155565b63ffffffff1642610df19190612192565b81600401600c6101000a81548163ffffffff021916908363ffffffff160217905550428160040160106101000a81548163ffffffff021916908363ffffffff160217905550600260003373ffffffffffffffffffffffffffffffffffffffff1673ffffffffffffffffffffffffffffffffffffffff16815260200190815260200160002060018080549050610e8691906121c6565b90806001815401808255809150506001900390600052602060002001600090919091909150553373ffffffffffffffffffffffffffffffffffffffff1660018080549050610ed491906121c6565b7f633109eec20320eded000fc1e2634211aa7e92ba3f5b15faf6dcdafca05094e460405160405180910390a3505050505050505050565b6060600260008373ffffffffffffffffffffffffffffffffffffffff1673ffffffffffffffffffffffffffffffffffffffff168152602001908152602001600020805480602002602001604051908101604052809291908181526020018280548015610f9657602002820191906000526020600020905b815481526020019060010190808311610f82575b50505050509050919050565b60006001805490508310610feb576040517f08c379a0000000000000000000000000000000000000000000000000000000008152600401610fe290611a4a565b60405180910390fd5b60018381548110610fff57610ffe611963565b5b906000526020600020906006020160050160008373ffffffffffffffffffffffffffffffffffffffff1673ffffffffffffffffffffffffffffffffffffffff16815260200190815260200160002060009054906101000a90046bffffffffffffffffffffffff16905092915050565b806001818154811061108357611082611963565b5b9060005260206000209060060201600401600c9054906101000a900463ffffffff1663ffffffff1642106110ec576040517f08c379a00000000000000000000000000000000000000000000000000000000081526004016110e390612246565b60405180910390fd5b6000341161112f576040517f08c379a0000000000000000000000000000000000000000000000000000000008152600401611126906122b2565b60405180910390fd5b6001805490508210611176576040517f08c379a000000000000000000000000000000000000000000000000000000000815260040161116d90611a4a565b60405180910390fd5b60006001838154811061118c5761118b611963565b5b906000526020600020906006020190508060030160149054906101000a90046bffffffffffffffffffffffff166bffffffffffffffffffffffff168160040160009054906101000a90046bffffffffffffffffffffffff166bffffffffffffffffffffffff1610611232576040517f08c379a00000000000000000000000000000000000000000000000000000000081526004016112299061231e565b60405180910390fd5b6000349050808260050160003373ffffffffffffffffffffffffffffffffffffffff1673ffffffffffffffffffffffffffffffffffffffff16815260200190815260200160002060008282829054906101000a90046bffffffffffffffffffffffff1661129f919061233e565b92506101000a8154816bffffffffffffffffffffffff02191690836bffffffffffffffffffffffff160217905550808260040160008282829054906101000a90046bffffffffffffffffffffffff166112f8919061233e565b92506101000a8154816bffffffffffffffffffffffff02191690836bffffffffffffffffffffffff1602179055503373ffffffffffffffffffffffffffffffffffffffff16847f091a546054076ae840df240703b79103af793a73bc9eb10fd0bc5e3701b10d268360405161136d9190611948565b60405180910390a350505050565b6002600054036113b7576040517f3ee5aeb500000000000000000000000000000000000000000000000000000000815260040160405180910390fd5b6002600081905550565b6001600081905550565b6000819050919050565b6113de816113cb565b82525050565b60006020820190506113f960008301846113d5565b92915050565b600080fd5b600080fd5b611412816113cb565b811461141d57600080fd5b50565b60008135905061142f81611409565b92915050565b60006020828403121561144b5761144a6113ff565b5b600061145984828501611420565b91505092915050565b600081519050919050565b600082825260208201905092915050565b60005b8381101561149c578082015181840152602081019050611481565b60008484015250505050565b6000601f19601f8301169050919050565b60006114c482611462565b6114ce818561146d565b93506114de81856020860161147e565b6114e7816114a8565b840191505092915050565b600073ffffffffffffffffffffffffffffffffffffffff82169050919050565b600061151d826114f2565b9050919050565b61152d81611512565b82525050565b60006bffffffffffffffffffffffff82169050919050565b61155481611533565b82525050565b600063ffffffff82169050919050565b6115738161155a565b82525050565b60008115159050919050565b61158e81611579565b82525050565b60006101208201905081810360008301526115af818c6114b9565b905081810360208301526115c3818b6114b9565b905081810360408301526115d7818a6114b9565b90506115e66060830189611524565b6115f3608083018861154b565b61160060a083018761154b565b61160d60c083018661156a565b61161a60e083018561156a565b611628610100830184611585565b9a9950505050505050505050565b600080fd5b600080fd5b600080fd5b60008083601f84011261165b5761165a611636565b5b8235905067ffffffffffffffff8111156116785761167761163b565b5b60208301915083600182028301111561169457611693611640565b5b9250929050565b6116a481611533565b81146116af57600080fd5b50565b6000813590506116c18161169b565b92915050565b6116d08161155a565b81146116db57600080fd5b50565b6000813590506116ed816116c7565b92915050565b60008060008060008060008060a0898b031215611713576117126113ff565b5b600089013567ffffffffffffffff81111561173157611730611404565b5b61173d8b828c01611645565b9850985050602089013567ffffffffffffffff8111156117605761175f611404565b5b61176c8b828c01611645565b9650965050604089013567ffffffffffffffff81111561178f5761178e611404565b5b61179b8b828c01611645565b945094505060606117ae8b828c016116b2565b92505060806117bf8b828c016116de565b9150509295985092959890939650565b6117d881611512565b81146117e357600080fd5b50565b6000813590506117f5816117cf565b92915050565b600060208284031215611811576118106113ff565b5b600061181f848285016117e6565b91505092915050565b600081519050919050565b600082825260208201905092915050565b6000819050602082019050919050565b61185d816113cb565b82525050565b600061186f8383611854565b60208301905092915050565b6000602082019050919050565b600061189382611828565b61189d8185611833565b93506118a883611844565b8060005b838110156118d95781516118c08882611863565b97506118cb8361187b565b9250506001810190506118ac565b5085935050505092915050565b600060208201905081810360008301526119008184611888565b905092915050565b6000806040838503121561191f5761191e6113ff565b5b600061192d85828601611420565b925050602061193e858286016117e6565b9150509250929050565b600060208201905061195d600083018461154b565b92915050565b7f4e487b7100000000000000000000000000000000000000000000000000000000600052603260045260246000fd5b7f446561646c696e65206e6f742072656163686564000000000000000000000000600082015250565b60006119c860148361146d565b91506119d382611992565b602082019050919050565b600060208201905081810360008301526119f7816119bb565b9050919050565b7f496e76616c69642063616d706169676e00000000000000000000000000000000600082015250565b6000611a3460108361146d565b9150611a3f826119fe565b602082019050919050565b60006020820190508181036000830152611a6381611a27565b9050919050565b7f476f616c206d6574000000000000000000000000000000000000000000000000600082015250565b6000611aa060088361146d565b9150611aab82611a6a565b602082019050919050565b60006020820190508181036000830152611acf81611a93565b9050919050565b7f4e6f20636f6e747269627574696f6e0000000000000000000000000000000000600082015250565b6000611b0c600f8361146d565b9150611b1782611ad6565b602082019050919050565b60006020820190508181036000830152611b3b81611aff565b9050919050565b600081905092915050565b50565b6000611b5d600083611b42565b9150611b6882611b4d565b600082019050919050565b6000611b7e82611b50565b9150819050919050565b7f526566756e64206661696c656400000000000000000000000000000000000000600082015250565b6000611bbe600d8361146d565b9150611bc982611b88565b602082019050919050565b60006020820190508181036000830152611bed81611bb1565b9050919050565b7f4e6f74206f776e65720000000000000000000000000000000000000000000000600082015250565b6000611c2a60098361146d565b9150611c3582611bf4565b602082019050919050565b60006020820190508181036000830152611c5981611c1d565b9050919050565b7f476f616c206e6f74206d65740000000000000000000000000000000000000000600082015250565b6000611c96600c8361146d565b9150611ca182611c60565b602082019050919050565b60006020820190508181036000830152611cc581611c89565b9050919050565b7f416c72656164792077697468647261776e000000000000000000000000000000600082015250565b6000611d0260118361146d565b9150611d0d82611ccc565b602082019050919050565b60006020820190508181036000830152611d3181611cf5565b9050919050565b7f5472616e73666572206661696c65640000000000000000000000000000000000600082015250565b6000611d6e600f8361146d565b9150611d7982611d38565b602082019050919050565b60006020820190508181036000830152611d9d81611d61565b9050919050565b7f4e487b7100000000000000000000000000000000000000000000000000000000600052602260045260246000fd5b60006002820490506001821680611deb57607f821691505b602082108103611dfe57611dfd611da4565b5b50919050565b7f476f616c206d757374206265203e203000000000000000000000000000000000600082015250565b6000611e3a60108361146d565b9150611e4582611e04565b602082019050919050565b60006020820190508181036000830152611e6981611e2d565b9050919050565b600082905092915050565b7f4e487b7100000000000000000000000000000000000000000000000000000000600052604160045260246000fd5b60008190508160005260206000209050919050565b60006020601f8301049050919050565b600082821b905092915050565b600060088302611f0c7fffffffffffffffffffffffffffffffffffffffffffffffffffffffffffffffff82611ecf565b611f168683611ecf565b95508019841693508086168417925050509392505050565b6000819050919050565b6000611f53611f4e611f49846113cb565b611f2e565b6113cb565b9050919050565b6000819050919050565b611f6d83611f38565b611f81611f7982611f5a565b848454611edc565b825550505050565b600090565b611f96611f89565b611fa1818484611f64565b505050565b5b81811015611fc557611fba600082611f8e565b600181019050611fa7565b5050565b601f82111561200a57611fdb81611eaa565b611fe484611ebf565b81016020851015611ff3578190505b612007611fff85611ebf565b830182611fa6565b50505b505050565b600082821c905092915050565b600061202d6000198460080261200f565b1980831691505092915050565b6000612046838361201c565b9150826002028217905092915050565b6120608383611e70565b67ffffffffffffffff81111561207957612078611e7b565b5b6120838254611dd3565b61208e828285611fc9565b6000601f8311600181146120bd57600084156120ab578287013590505b6120b5858261203a565b86555061211d565b601f1984166120cb86611eaa565b60005b828110156120f3578489013582556001820191506020850194506020810190506120ce565b86831015612110578489013561210c601f89168261201c565b8355505b6001600288020188555050505b50505050505050565b7f4e487b7100000000000000000000000000000000000000000000000000000000600052601160045260246000fd5b60006121608261155a565b915061216b8361155a565b92508282026121798161155a565b915080821461218b5761218a612126565b5b5092915050565b600061219d826113cb565b91506121a8836113cb565b92508282019050808211156121c0576121bf612126565b5b92915050565b60006121d1826113cb565b91506121dc836113cb565b92508282039050818111156121f4576121f3612126565b5b92915050565b7f446561646c696e65207061737365640000000000000000000000000000000000600082015250565b6000612230600f8361146d565b915061223b826121fa565b602082019050919050565b6000602082019050818103600083015261225f81612223565b9050919050565b7f4e6f204554482073656e74000000000000000000000000000000000000000000600082015250565b600061229c600b8361146d565b91506122a782612266565b602082019050919050565b600060208201905081810360008301526122cb8161228f565b9050919050565b7f476f616c20726561636865640000000000000000000000000000000000000000600082015250565b6000612308600c8361146d565b9150612313826122d2565b602082019050919050565b60006020820190508181036000830152612337816122fb565b9050919050565b600061234982611533565b915061235483611533565b925082820190506bffffffffffffffffffffffff81111561237857612377612126565b5b9291505056fea26469706673582212202e597f84b6383523e4e5fbdba9b6a73af9cc007d4153a6130c967d97fdd065c864736f6c63430008140033",
  "linkReferences": {},
  "deployedLinkReferences": {}
}